{
  "contractName": "Crowdsale",
  "abi": [
    {
      "constant": true,
      "inputs": [],
      "name": "endTime",
      "outputs": [
        {
          "name": "",
          "type": "uint256"
        }
      ],
      "payable": false,
      "stateMutability": "view",
      "type": "function"
    },
    {
      "constant": true,
      "inputs": [],
      "name": "saleQueue",
      "outputs": [
        {
          "name": "",
          "type": "address"
        }
      ],
      "payable": false,
      "stateMutability": "view",
      "type": "function"
    },
    {
      "constant": true,
      "inputs": [],
      "name": "xrate",
      "outputs": [
        {
          "name": "",
          "type": "uint256"
        }
      ],
      "payable": false,
      "stateMutability": "view",
      "type": "function"
    },
    {
      "constant": true,
      "inputs": [],
      "name": "startTime",
      "outputs": [
        {
          "name": "",
          "type": "uint256"
        }
      ],
      "payable": false,
      "stateMutability": "view",
      "type": "function"
    },
    {
      "constant": true,
      "inputs": [],
      "name": "coinsSold",
      "outputs": [
        {
          "name": "",
          "type": "uint256"
        }
      ],
      "payable": false,
      "stateMutability": "view",
      "type": "function"
    },
    {
      "constant": true,
      "inputs": [],
      "name": "owner",
      "outputs": [
        {
          "name": "",
          "type": "address"
        }
      ],
      "payable": false,
      "stateMutability": "view",
      "type": "function"
    },
    {
      "constant": true,
      "inputs": [],
      "name": "token",
      "outputs": [
        {
          "name": "",
          "type": "address"
        }
      ],
      "payable": false,
      "stateMutability": "view",
      "type": "function"
    },
    {
      "inputs": [
        {
          "name": "_initialTokens",
          "type": "uint256"
        },
        {
          "name": "_xrate",
          "type": "uint256"
        },
        {
          "name": "_timeLimit",
          "type": "uint256"
        },
        {
          "name": "_queueTime",
          "type": "uint256"
        }
      ],
      "payable": true,
      "stateMutability": "payable",
      "type": "constructor"
    },
    {
      "payable": true,
      "stateMutability": "payable",
      "type": "fallback"
    },
    {
      "anonymous": false,
      "inputs": [
        {
          "indexed": false,
          "name": "buyer",
          "type": "address"
        }
      ],
      "name": "TokenPurchase",
      "type": "event"
    },
    {
      "anonymous": false,
      "inputs": [
        {
          "indexed": false,
          "name": "buyer",
          "type": "address"
        }
      ],
      "name": "TokenRefund",
      "type": "event"
    },
    {
      "constant": false,
      "inputs": [
        {
          "name": "amount",
          "type": "uint256"
        }
      ],
      "name": "mintTokens",
      "outputs": [],
      "payable": false,
      "stateMutability": "nonpayable",
      "type": "function"
    },
    {
      "constant": false,
      "inputs": [
        {
          "name": "amount",
          "type": "uint256"
        }
      ],
      "name": "burnTokens",
      "outputs": [
        {
          "name": "",
          "type": "bool"
        }
      ],
      "payable": false,
      "stateMutability": "nonpayable",
      "type": "function"
    },
    {
      "constant": false,
      "inputs": [],
      "name": "receiveFunds",
      "outputs": [],
      "payable": false,
      "stateMutability": "nonpayable",
      "type": "function"
    },
    {
      "constant": false,
      "inputs": [
        {
          "name": "amount",
          "type": "uint256"
        }
      ],
      "name": "buyTokens",
      "outputs": [],
      "payable": true,
      "stateMutability": "payable",
      "type": "function"
    },
    {
      "constant": false,
      "inputs": [
        {
          "name": "amount",
          "type": "uint256"
        }
      ],
      "name": "refundTokens",
      "outputs": [],
      "payable": false,
      "stateMutability": "nonpayable",
      "type": "function"
    },
    {
      "constant": false,
      "inputs": [],
      "name": "joinQueue",
      "outputs": [
        {
          "name": "",
          "type": "bool"
        }
      ],
      "payable": false,
      "stateMutability": "nonpayable",
      "type": "function"
    },
    {
      "constant": false,
      "inputs": [],
      "name": "checkTime",
      "outputs": [],
      "payable": false,
      "stateMutability": "nonpayable",
      "type": "function"
    },
    {
      "constant": false,
      "inputs": [],
      "name": "checkPlace",
      "outputs": [
        {
          "name": "",
          "type": "uint256"
        }
      ],
      "payable": false,
      "stateMutability": "nonpayable",
      "type": "function"
    }
  ],
  "bytecode": "0x606060405260405160808061284c83398101604052808051906020019091908051906020019091908051906020019091908051906020019091905050336000806101000a81548173ffffffffffffffffffffffffffffffffffffffff021916908373ffffffffffffffffffffffffffffffffffffffff160217905550826002819055504260038190555081600354016004819055508061009d61017f565b80828152602001915050604051809103906000f08015156100bd57600080fd5b600560006101000a81548173ffffffffffffffffffffffffffffffffffffffff021916908373ffffffffffffffffffffffffffffffffffffffff16021790555060006001819055508361010e61018f565b80828152602001915050604051809103906000f080151561012e57600080fd5b600660006101000a81548173ffffffffffffffffffffffffffffffffffffffff021916908373ffffffffffffffffffffffffffffffffffffffff16021790555060006007819055505050505061019f565b60405161083b806111a583390190565b604051610e6c806119e083390190565b610ff7806101ae6000396000f3006060604052600436106100da576000357c0100000000000000000000000000000000000000000000000000000000900463ffffffff1680625c33e1146100df5780633197cbb6146100f45780633610724e1461011d57806337129107146101355780633f9750761461018a5780635dfee9bb146101b35780635ecac9d4146101d65780636d1b229d1461020357806378e979251461023e5780637a81450c146102675780638da5cb5b1461029057806397304ced146102e5578063ad7d59fc14610308578063e0c6190d14610331578063fc0c546a14610346575b600080fd5b34156100ea57600080fd5b6100f261039b565b005b34156100ff57600080fd5b610107610461565b6040518082815260200191505060405180910390f35b6101336004808035906020019091905050610467565b005b341561014057600080fd5b610148610838565b604051808273ffffffffffffffffffffffffffffffffffffffff1673ffffffffffffffffffffffffffffffffffffffff16815260200191505060405180910390f35b341561019557600080fd5b61019d61085e565b6040518082815260200191505060405180910390f35b34156101be57600080fd5b6101d46004808035906020019091905050610864565b005b34156101e157600080fd5b6101e9610a38565b604051808215151515815260200191505060405180910390f35b341561020e57600080fd5b6102246004808035906020019091905050610be6565b604051808215151515815260200191505060405180910390f35b341561024957600080fd5b610251610cf9565b6040518082815260200191505060405180910390f35b341561027257600080fd5b61027a610cff565b6040518082815260200191505060405180910390f35b341561029b57600080fd5b6102a3610d05565b604051808273ffffffffffffffffffffffffffffffffffffffff1673ffffffffffffffffffffffffffffffffffffffff16815260200191505060405180910390f35b34156102f057600080fd5b6103066004808035906020019091905050610d2a565b005b341561031357600080fd5b61031b610e27565b6040518082815260200191505060405180910390f35b341561033c57600080fd5b610344610ef2565b005b341561035157600080fd5b610359610fa5565b604051808273ffffffffffffffffffffffffffffffffffffffff1673ffffffffffffffffffffffffffffffffffffffff16815260200191505060405180910390f35b6000809054906101000a900473ffffffffffffffffffffffffffffffffffffffff1673ffffffffffffffffffffffffffffffffffffffff163373ffffffffffffffffffffffffffffffffffffffff16141561045f5760045442111561045e576000809054906101000a900473ffffffffffffffffffffffffffffffffffffffff1673ffffffffffffffffffffffffffffffffffffffff166108fc6007549081150290604051600060405180830381858888f19350505050151561045d57600080fd5b5b5b565b60045481565b60035442118015610479575060045442105b15610835573373ffffffffffffffffffffffffffffffffffffffff16600560009054906101000a900473ffffffffffffffffffffffffffffffffffffffff1673ffffffffffffffffffffffffffffffffffffffff16631e2231436000604051602001526040518163ffffffff167c0100000000000000000000000000000000000000000000000000000000028152600401602060405180830381600087803b151561052357600080fd5b6102c65a03f1151561053457600080fd5b5050506040518051905073ffffffffffffffffffffffffffffffffffffffff161480156106065750600560009054906101000a900473ffffffffffffffffffffffffffffffffffffffff1673ffffffffffffffffffffffffffffffffffffffff1663ff65226c6000604051602001526040518163ffffffff167c0100000000000000000000000000000000000000000000000000000000028152600401602060405180830381600087803b15156105ea57600080fd5b6102c65a03f115156105fb57600080fd5b505050604051805190505b151561061157600080fd5b600254340281111580156107095750600660009054906101000a900473ffffffffffffffffffffffffffffffffffffffff1673ffffffffffffffffffffffffffffffffffffffff16638de9322233836000604051602001526040518363ffffffff167c0100000000000000000000000000000000000000000000000000000000028152600401808373ffffffffffffffffffffffffffffffffffffffff1673ffffffffffffffffffffffffffffffffffffffff16815260200182815260200192505050602060405180830381600087803b15156106ed57600080fd5b6102c65a03f115156106fe57600080fd5b505050604051805190505b1561082f5780600160008282540192505081905550346007600082825401925050819055507fc3cd64ec4753a9de6194afc75fca20b217877409a35b97e28b40ea7230939f0d33604051808273ffffffffffffffffffffffffffffffffffffffff1673ffffffffffffffffffffffffffffffffffffffff16815260200191505060405180910390a1600560009054906101000a900473ffffffffffffffffffffffffffffffffffffffff1673ffffffffffffffffffffffffffffffffffffffff1663957908d16040518163ffffffff167c0100000000000000000000000000000000000000000000000000000000028152600401600060405180830381600087803b151561081657600080fd5b6102c65a03f1151561082757600080fd5b505050610834565b600080fd5b5b50565b600560009054906101000a900473ffffffffffffffffffffffffffffffffffffffff1681565b60025481565b60035442118015610876575060045442105b15610a3557600660009054906101000a900473ffffffffffffffffffffffffffffffffffffffff1673ffffffffffffffffffffffffffffffffffffffff1663410085df33836000604051602001526040518363ffffffff167c0100000000000000000000000000000000000000000000000000000000028152600401808373ffffffffffffffffffffffffffffffffffffffff1673ffffffffffffffffffffffffffffffffffffffff16815260200182815260200192505050602060405180830381600087803b151561094857600080fd5b6102c65a03f1151561095957600080fd5b5050506040518051905015610a3457806001600082825403925050819055503373ffffffffffffffffffffffffffffffffffffffff166108fc60025483029081150290604051600060405180830381858888f1935050505015156109bc57600080fd5b60025481026007600082825403925050819055507f20b4fae6e10a69b2482a1a4230a571ca352454890034733f783c63edf795c37f33604051808273ffffffffffffffffffffffffffffffffffffffff1673ffffffffffffffffffffffffffffffffffffffff16815260200191505060405180910390a15b5b50565b600060035442118015610a4c575060045442105b15610be35760058060009054906101000a900473ffffffffffffffffffffffffffffffffffffffff1673ffffffffffffffffffffffffffffffffffffffff16633e3c9eae6000604051602001526040518163ffffffff167c0100000000000000000000000000000000000000000000000000000000028152600401602060405180830381600087803b1515610ae057600080fd5b6102c65a03f11515610af157600080fd5b5050506040518051905060ff161015610bdd57600560009054906101000a900473ffffffffffffffffffffffffffffffffffffffff1673ffffffffffffffffffffffffffffffffffffffff16638f807f6b336040518263ffffffff167c0100000000000000000000000000000000000000000000000000000000028152600401808273ffffffffffffffffffffffffffffffffffffffff1673ffffffffffffffffffffffffffffffffffffffff168152602001915050600060405180830381600087803b1515610bc057600080fd5b6102c65a03f11515610bd157600080fd5b50505060019050610be2565b600090505b5b90565b60008060009054906101000a900473ffffffffffffffffffffffffffffffffffffffff1673ffffffffffffffffffffffffffffffffffffffff163373ffffffffffffffffffffffffffffffffffffffff161415610cf457600660009054906101000a900473ffffffffffffffffffffffffffffffffffffffff1673ffffffffffffffffffffffffffffffffffffffff166342966c68836000604051602001526040518263ffffffff167c010000000000000000000000000000000000000000000000000000000002815260040180828152602001915050602060405180830381600087803b1515610cd657600080fd5b6102c65a03f11515610ce757600080fd5b5050506040518051905090505b919050565b60035481565b60015481565b6000809054906101000a900473ffffffffffffffffffffffffffffffffffffffff1681565b6000809054906101000a900473ffffffffffffffffffffffffffffffffffffffff1673ffffffffffffffffffffffffffffffffffffffff163373ffffffffffffffffffffffffffffffffffffffff161415610e2457600660009054906101000a900473ffffffffffffffffffffffffffffffffffffffff1673ffffffffffffffffffffffffffffffffffffffff1663a0712d68826040518263ffffffff167c010000000000000000000000000000000000000000000000000000000002815260040180828152602001915050600060405180830381600087803b1515610e0f57600080fd5b6102c65a03f11515610e2057600080fd5b5050505b50565b600060035442118015610e3b575060045442105b15610eef57600560009054906101000a900473ffffffffffffffffffffffffffffffffffffffff1673ffffffffffffffffffffffffffffffffffffffff1663ad7d59fc6000604051602001526040518163ffffffff167c0100000000000000000000000000000000000000000000000000000000028152600401602060405180830381600087803b1515610ece57600080fd5b6102c65a03f11515610edf57600080fd5b5050506040518051905060ff1690505b90565b60035442118015610f04575060045442105b15610fa357600560009054906101000a900473ffffffffffffffffffffffffffffffffffffffff1673ffffffffffffffffffffffffffffffffffffffff1663e0c6190d6040518163ffffffff167c0100000000000000000000000000000000000000000000000000000000028152600401600060405180830381600087803b1515610f8e57600080fd5b6102c65a03f11515610f9f57600080fd5b5050505b565b600660009054906101000a900473ffffffffffffffffffffffffffffffffffffffff16815600a165627a7a723058206623a54d3b06c215f6fa55079c2bba996db25060263729a766182e4ee1ce4ce9002960606040526005600160006101000a81548160ff021916908360ff160217905550341561002b57600080fd5b60405160208061083b83398101604052808051906020019091905050600160009054906101000a900460ff1660ff166040518059106100675750595b90808252806020026020018201604052506000908051906020019061008d9291906100b6565b5060006001806101000a81548160ff021916908360ff1602179055508060028190555050610183565b82805482825590600052602060002090810192821561012f579160200282015b8281111561012e5782518260006101000a81548173ffffffffffffffffffffffffffffffffffffffff021916908373ffffffffffffffffffffffffffffffffffffffff160217905550916020019190600101906100d6565b5b50905061013c9190610140565b5090565b61018091905b8082111561017c57600081816101000a81549073ffffffffffffffffffffffffffffffffffffffff021916905550600101610146565b5090565b90565b6106a9806101926000396000f300606060405260043610610099576000357c0100000000000000000000000000000000000000000000000000000000900463ffffffff1680631e2231431461009e5780633e3c9eae146100f35780638f807f6b14610122578063957908d11461015b578063a4d66daf14610170578063ad7d59fc14610199578063e0c6190d146101c8578063f2a75fe4146101dd578063ff65226c1461020a575b600080fd5b34156100a957600080fd5b6100b1610237565b604051808273ffffffffffffffffffffffffffffffffffffffff1673ffffffffffffffffffffffffffffffffffffffff16815260200191505060405180910390f35b34156100fe57600080fd5b610106610279565b604051808260ff1660ff16815260200191505060405180910390f35b341561012d57600080fd5b610159600480803573ffffffffffffffffffffffffffffffffffffffff1690602001909190505061028f565b005b341561016657600080fd5b61016e61035d565b005b341561017b57600080fd5b6101836104d4565b6040518082815260200191505060405180910390f35b34156101a457600080fd5b6101ac6104da565b604051808260ff1660ff16815260200191505060405180910390f35b34156101d357600080fd5b6101db61058c565b005b34156101e857600080fd5b6101f0610646565b604051808215151515815260200191505060405180910390f35b341561021557600080fd5b61021d610661565b604051808215151515815260200191505060405180910390f35b600080600081548110151561024857fe5b906000526020600020900160009054906101000a900473ffffffffffffffffffffffffffffffffffffffff16905090565b60006001809054906101000a900460ff16905090565b610297610646565b156102a457426003819055505b60056001809054906101000a900460ff1660ff16101561035a578060006001809054906101000a900460ff1660ff168154811015156102df57fe5b906000526020600020900160006101000a81548173ffffffffffffffffffffffffffffffffffffffff021916908373ffffffffffffffffffffffffffffffffffffffff16021790555060018081819054906101000a900460ff168092919060010191906101000a81548160ff021916908360ff160217905550505b50565b60008090505b60018060019054906101000a900460ff160360ff168160ff16101561042b5760006001820160ff1681548110151561039757fe5b906000526020600020900160009054906101000a900473ffffffffffffffffffffffffffffffffffffffff1660008260ff168154811015156103d557fe5b906000526020600020900160006101000a81548173ffffffffffffffffffffffffffffffffffffffff021916908373ffffffffffffffffffffffffffffffffffffffff1602179055508080600101915050610363565b60008060018060019054906101000a900460ff160360ff1681548110151561044f57fe5b906000526020600020900160006101000a81548173ffffffffffffffffffffffffffffffffffffffff021916908373ffffffffffffffffffffffffffffffffffffffff16021790555060018081819054906101000a900460ff16809291906001900391906101000a81548160ff021916908360ff160217905550504260038190555050565b60025481565b600080600090505b6001809054906101000a900460ff1660ff168160ff1610156105875760008160ff1681548110151561051057fe5b906000526020600020900160009054906101000a900473ffffffffffffffffffffffffffffffffffffffff1673ffffffffffffffffffffffffffffffffffffffff163373ffffffffffffffffffffffffffffffffffffffff16141561057a57600181019150610588565b80806001019150506104e2565b5b5090565b603c600254026003540142101515610644577f981dc52795d197fa56865619edbd5b7e83fb2865f0a6a7e4d618aa2ec39aee406000808154811015156105ce57fe5b906000526020600020900160009054906101000a900473ffffffffffffffffffffffffffffffffffffffff16604051808273ffffffffffffffffffffffffffffffffffffffff1673ffffffffffffffffffffffffffffffffffffffff16815260200191505060405180910390a161064361035d565b5b565b6000806001809054906101000a900460ff1660ff1614905090565b600060018060019054906101000a900460ff1660ff16119050905600a165627a7a72305820e1ecc922d369f8f119e51d6d45170cc72bfa9ac427b8dac8251de5104e97482100296060604052341561000f57600080fd5b604051602080610e6c8339810160405280805190602001909190505033600260006101000a81548173ffffffffffffffffffffffffffffffffffffffff021916908373ffffffffffffffffffffffffffffffffffffffff1602179055508060018190555050610de9806100836000396000f3006060604052600436106100af576000357c0100000000000000000000000000000000000000000000000000000000900463ffffffff168063095ea7b3146100b457806318160ddd1461010e57806323b872dd14610137578063410085df146101b057806342966c681461020a57806370a08231146102455780638de9322214610292578063a0712d68146102ec578063a9059cbb1461030f578063c4e41b2214610369578063dd62ed3e14610392575b600080fd5b34156100bf57600080fd5b6100f4600480803573ffffffffffffffffffffffffffffffffffffffff169060200190919080359060200190919050506103fe565b604051808215151515815260200191505060405180910390f35b341561011957600080fd5b6101216104f0565b6040518082815260200191505060405180910390f35b341561014257600080fd5b610196600480803573ffffffffffffffffffffffffffffffffffffffff1690602001909190803573ffffffffffffffffffffffffffffffffffffffff169060200190919080359060200190919050506104f6565b604051808215151515815260200191505060405180910390f35b34156101bb57600080fd5b6101f0600480803573ffffffffffffffffffffffffffffffffffffffff1690602001909190803590602001909190505061069c565b604051808215151515815260200191505060405180910390f35b341561021557600080fd5b61022b60048080359060200190919050506107db565b604051808215151515815260200191505060405180910390f35b341561025057600080fd5b61027c600480803573ffffffffffffffffffffffffffffffffffffffff16906020019091905050610988565b6040518082815260200191505060405180910390f35b341561029d57600080fd5b6102d2600480803573ffffffffffffffffffffffffffffffffffffffff169060200190919080359060200190919050506109d1565b604051808215151515815260200191505060405180910390f35b34156102f757600080fd5b61030d6004808035906020019091905050610b10565b005b341561031a57600080fd5b61034f600480803573ffffffffffffffffffffffffffffffffffffffff16906020019091908035906020019091905050610b97565b604051808215151515815260200191505060405180910390f35b341561037457600080fd5b61037c610d2c565b6040518082815260200191505060405180910390f35b341561039d57600080fd5b6103e8600480803573ffffffffffffffffffffffffffffffffffffffff1690602001909190803573ffffffffffffffffffffffffffffffffffffffff16906020019091905050610d36565b6040518082815260200191505060405180910390f35b600081600460003373ffffffffffffffffffffffffffffffffffffffff1673ffffffffffffffffffffffffffffffffffffffff16815260200190815260200160002060008573ffffffffffffffffffffffffffffffffffffffff1673ffffffffffffffffffffffffffffffffffffffff168152602001908152602001600020819055508273ffffffffffffffffffffffffffffffffffffffff163373ffffffffffffffffffffffffffffffffffffffff167f8c5be1e5ebec7d5bd14f71427d1e84f3dd0314c0f7b2291e5b200ac8c7c3b925846040518082815260200191505060405180910390a36001905092915050565b60005481565b600081600460008673ffffffffffffffffffffffffffffffffffffffff1673ffffffffffffffffffffffffffffffffffffffff16815260200190815260200160002060003373ffffffffffffffffffffffffffffffffffffffff1673ffffffffffffffffffffffffffffffffffffffff168152602001908152602001600020541015156106905781600460008673ffffffffffffffffffffffffffffffffffffffff1673ffffffffffffffffffffffffffffffffffffffff16815260200190815260200160002060003373ffffffffffffffffffffffffffffffffffffffff1673ffffffffffffffffffffffffffffffffffffffff1681526020019081526020016000205403600460008673ffffffffffffffffffffffffffffffffffffffff1673ffffffffffffffffffffffffffffffffffffffff16815260200190815260200160002060003373ffffffffffffffffffffffffffffffffffffffff1673ffffffffffffffffffffffffffffffffffffffff168152602001908152602001600020819055506106868383610b97565b5060019050610695565b600090505b9392505050565b6000600260009054906101000a900473ffffffffffffffffffffffffffffffffffffffff1673ffffffffffffffffffffffffffffffffffffffff163373ffffffffffffffffffffffffffffffffffffffff161415156106fa57600080fd5b81600360008573ffffffffffffffffffffffffffffffffffffffff1673ffffffffffffffffffffffffffffffffffffffff168152602001908152602001600020541015156107d05781600360008573ffffffffffffffffffffffffffffffffffffffff1673ffffffffffffffffffffffffffffffffffffffff1681526020019081526020016000205403600360008573ffffffffffffffffffffffffffffffffffffffff1673ffffffffffffffffffffffffffffffffffffffff16815260200190815260200160002081905550600190506107d5565b600090505b92915050565b6000600260009054906101000a900473ffffffffffffffffffffffffffffffffffffffff1673ffffffffffffffffffffffffffffffffffffffff163373ffffffffffffffffffffffffffffffffffffffff1614151561083957600080fd5b81600360003373ffffffffffffffffffffffffffffffffffffffff1673ffffffffffffffffffffffffffffffffffffffff1681526020019081526020016000205410151561097e5781600360003373ffffffffffffffffffffffffffffffffffffffff1673ffffffffffffffffffffffffffffffffffffffff16815260200190815260200160002054101515156108cf57600080fd5b81600360003373ffffffffffffffffffffffffffffffffffffffff1673ffffffffffffffffffffffffffffffffffffffff1681526020019081526020016000205403600360003373ffffffffffffffffffffffffffffffffffffffff1673ffffffffffffffffffffffffffffffffffffffff16815260200190815260200160002081905550816001541015151561096557600080fd5b8160016000828254039250508190555060019050610983565b600090505b919050565b6000600360008373ffffffffffffffffffffffffffffffffffffffff1673ffffffffffffffffffffffffffffffffffffffff168152602001908152602001600020549050919050565b600080600260009054906101000a900473ffffffffffffffffffffffffffffffffffffffff1673ffffffffffffffffffffffffffffffffffffffff163373ffffffffffffffffffffffffffffffffffffffff16141515610a3057600080fd5b600360008573ffffffffffffffffffffffffffffffffffffffff1673ffffffffffffffffffffffffffffffffffffffff168152602001908152602001600020549050828101600360008673ffffffffffffffffffffffffffffffffffffffff1673ffffffffffffffffffffffffffffffffffffffff1681526020019081526020016000208190555080600360008673ffffffffffffffffffffffffffffffffffffffff1673ffffffffffffffffffffffffffffffffffffffff16815260200190815260200160002054111515610b0557600080fd5b600191505092915050565b6000600260009054906101000a900473ffffffffffffffffffffffffffffffffffffffff1673ffffffffffffffffffffffffffffffffffffffff163373ffffffffffffffffffffffffffffffffffffffff16141515610b6e57600080fd5b60015490508160016000828254019250508190555080600154111515610b9357600080fd5b5050565b600081600360003373ffffffffffffffffffffffffffffffffffffffff1673ffffffffffffffffffffffffffffffffffffffff16815260200190815260200160002054101515610d215781600360003373ffffffffffffffffffffffffffffffffffffffff1673ffffffffffffffffffffffffffffffffffffffff1681526020019081526020016000205403600360003373ffffffffffffffffffffffffffffffffffffffff1673ffffffffffffffffffffffffffffffffffffffff1681526020019081526020016000208190555081600360008573ffffffffffffffffffffffffffffffffffffffff1673ffffffffffffffffffffffffffffffffffffffff168152602001908152602001600020600082825401925050819055508273ffffffffffffffffffffffffffffffffffffffff163373ffffffffffffffffffffffffffffffffffffffff167fddf252ad1be2c89b69c2b068fc378daa952ba7f163c4a11628f55a4df523b3ef846040518082815260200191505060405180910390a360019050610d26565b600090505b92915050565b6000600154905090565b6000600460008473ffffffffffffffffffffffffffffffffffffffff1673ffffffffffffffffffffffffffffffffffffffff16815260200190815260200160002060008373ffffffffffffffffffffffffffffffffffffffff1673ffffffffffffffffffffffffffffffffffffffff168152602001908152602001600020549050929150505600a165627a7a72305820afa3ed7fc0292b403c2415ceb5eca02f4c5898dbd667678a551f964938092a6f0029",
  "source": "pragma solidity ^0.4.15;\n\nimport './Queue.sol';\nimport './Token.sol';\n\n/**\n * @title Crowdsale\n * @dev Contract that deploys `Token.sol`\n * Is timelocked, manages buyer queue, updates balances on `Token.sol`\n */\n\ncontract Crowdsale {\n\n\tfunction Crowdsale(uint _initialTokens, uint _xrate, uint _timeLimit, uint _queueTime) public payable {\n\t    owner = msg.sender;\n\t    //totalSupply = _initialTokens;\n\t    xrate = _xrate;\n\t    startTime = now;\n\t    endTime = startTime + _timeLimit;\n\t    saleQueue = new Queue(_queueTime);\n\t    coinsSold = 0;\n\t    token = new Token(_initialTokens);\n\t    funds = 0;\n\t}\n\n\t/* Fallback function */\n    function() public payable {\n        revert();\n    }\n\n    /* State variables */\n    address public owner;\n    //uint public totalSupply;\n    uint public coinsSold;\n    uint public xrate;\n    uint public startTime;\n    uint public endTime;\n    Queue public saleQueue;\n    Token public token;\n    uint private funds;\n\n    /* Modifiers */\n    modifier ownerOnly() {if (msg.sender == owner) _;}\n    modifier saleOpen() {if (now > startTime && now < endTime) _;}\n\n    /* Events */\n    event TokenPurchase(address buyer);\n    event TokenRefund(address buyer);\n\n    function mintTokens(uint amount) ownerOnly() {\n        token.mint(amount);\n    }\n\n    function burnTokens(uint amount) ownerOnly() returns (bool)  {\n        return token.burn(amount);\n    }\n\n    function receiveFunds() ownerOnly() {\n        if (now > endTime) {\n            owner.transfer(funds);\n        }\n    }\n\n    function buyTokens(uint amount) public payable saleOpen() {\n        require(saleQueue.getFirst() == msg.sender && saleQueue.canBuy());\n        if (amount <= msg.value * xrate && token.purchase(msg.sender, amount)) {\n\n            coinsSold += amount;\n            funds += msg.value;\n\n            TokenPurchase(msg.sender);\n            saleQueue.dequeue();\n        }\n        else {\n            revert();\n        }\n    }\n\n    function refundTokens(uint amount) public saleOpen() {\n        if (token.refund(msg.sender, amount)) {\n\n            coinsSold -= amount;\n            msg.sender.transfer(amount * xrate);\n            funds -= amount * xrate;\n\n            TokenRefund(msg.sender);\n        }\n    }\n\n    function joinQueue() public saleOpen() returns (bool){\n        if (saleQueue.qsize() < 5) {\n            saleQueue.enqueue(msg.sender);\n            return true;\n        }\n        return false;\n    }\n\n    function checkTime() public saleOpen() {\n        saleQueue.checkTime();\n    }\n\n    function checkPlace() public saleOpen() returns (uint) {\n        return saleQueue.checkPlace();\n    }\n\n\n}\n",
  "sourcePath": "/Users/kunalkak/Blockchain/sp18-midterm-p1/contracts/Crowdsale.sol",
  "compiler": {
    "name": "solc",
    "version": "0.4.19+commit.c4cbbb05.Emscripten.clang"
  },
  "schemaVersion": "1.0.1",
  "updatedAt": "2018-03-08T23:38:10.283Z"
}