{
  "contractName": "Queue",
  "abi": [
    {
      "constant": true,
      "inputs": [],
      "name": "limit",
      "outputs": [
        {
          "name": "",
          "type": "uint256"
        }
      ],
      "payable": false,
      "stateMutability": "view",
      "type": "function"
    },
    {
      "inputs": [
        {
          "name": "timeLimit",
          "type": "uint256"
        }
      ],
      "payable": false,
      "stateMutability": "nonpayable",
      "type": "constructor"
    },
    {
      "anonymous": false,
      "inputs": [
        {
          "indexed": false,
          "name": "",
          "type": "address"
        }
      ],
      "name": "Ejected",
      "type": "event"
    },
    {
      "constant": true,
      "inputs": [],
      "name": "qsize",
      "outputs": [
        {
          "name": "",
          "type": "uint8"
        }
      ],
      "payable": false,
      "stateMutability": "view",
      "type": "function"
    },
    {
      "constant": true,
      "inputs": [],
      "name": "empty",
      "outputs": [
        {
          "name": "",
          "type": "bool"
        }
      ],
      "payable": false,
      "stateMutability": "view",
      "type": "function"
    },
    {
      "constant": true,
      "inputs": [],
      "name": "canBuy",
      "outputs": [
        {
          "name": "",
          "type": "bool"
        }
      ],
      "payable": false,
      "stateMutability": "view",
      "type": "function"
    },
    {
      "constant": true,
      "inputs": [],
      "name": "getFirst",
      "outputs": [
        {
          "name": "",
          "type": "address"
        }
      ],
      "payable": false,
      "stateMutability": "view",
      "type": "function"
    },
    {
      "constant": true,
      "inputs": [],
      "name": "checkPlace",
      "outputs": [
        {
          "name": "",
          "type": "uint8"
        }
      ],
      "payable": false,
      "stateMutability": "view",
      "type": "function"
    },
    {
      "constant": false,
      "inputs": [],
      "name": "checkTime",
      "outputs": [],
      "payable": false,
      "stateMutability": "nonpayable",
      "type": "function"
    },
    {
      "constant": false,
      "inputs": [],
      "name": "dequeue",
      "outputs": [],
      "payable": false,
      "stateMutability": "nonpayable",
      "type": "function"
    },
    {
      "constant": false,
      "inputs": [
        {
          "name": "addr",
          "type": "address"
        }
      ],
      "name": "enqueue",
      "outputs": [],
      "payable": false,
      "stateMutability": "nonpayable",
      "type": "function"
    }
  ],
  "bytecode": "0x60606040526005600160006101000a81548160ff021916908360ff160217905550341561002b57600080fd5b60405160208061083b83398101604052808051906020019091905050600160009054906101000a900460ff1660ff166040518059106100675750595b90808252806020026020018201604052506000908051906020019061008d9291906100b6565b5060006001806101000a81548160ff021916908360ff1602179055508060028190555050610183565b82805482825590600052602060002090810192821561012f579160200282015b8281111561012e5782518260006101000a81548173ffffffffffffffffffffffffffffffffffffffff021916908373ffffffffffffffffffffffffffffffffffffffff160217905550916020019190600101906100d6565b5b50905061013c9190610140565b5090565b61018091905b8082111561017c57600081816101000a81549073ffffffffffffffffffffffffffffffffffffffff021916905550600101610146565b5090565b90565b6106a9806101926000396000f300606060405260043610610099576000357c0100000000000000000000000000000000000000000000000000000000900463ffffffff1680631e2231431461009e5780633e3c9eae146100f35780638f807f6b14610122578063957908d11461015b578063a4d66daf14610170578063ad7d59fc14610199578063e0c6190d146101c8578063f2a75fe4146101dd578063ff65226c1461020a575b600080fd5b34156100a957600080fd5b6100b1610237565b604051808273ffffffffffffffffffffffffffffffffffffffff1673ffffffffffffffffffffffffffffffffffffffff16815260200191505060405180910390f35b34156100fe57600080fd5b610106610279565b604051808260ff1660ff16815260200191505060405180910390f35b341561012d57600080fd5b610159600480803573ffffffffffffffffffffffffffffffffffffffff1690602001909190505061028f565b005b341561016657600080fd5b61016e61035d565b005b341561017b57600080fd5b6101836104d4565b6040518082815260200191505060405180910390f35b34156101a457600080fd5b6101ac6104da565b604051808260ff1660ff16815260200191505060405180910390f35b34156101d357600080fd5b6101db61058c565b005b34156101e857600080fd5b6101f0610646565b604051808215151515815260200191505060405180910390f35b341561021557600080fd5b61021d610661565b604051808215151515815260200191505060405180910390f35b600080600081548110151561024857fe5b906000526020600020900160009054906101000a900473ffffffffffffffffffffffffffffffffffffffff16905090565b60006001809054906101000a900460ff16905090565b610297610646565b156102a457426003819055505b60056001809054906101000a900460ff1660ff16101561035a578060006001809054906101000a900460ff1660ff168154811015156102df57fe5b906000526020600020900160006101000a81548173ffffffffffffffffffffffffffffffffffffffff021916908373ffffffffffffffffffffffffffffffffffffffff16021790555060018081819054906101000a900460ff168092919060010191906101000a81548160ff021916908360ff160217905550505b50565b60008090505b60018060019054906101000a900460ff160360ff168160ff16101561042b5760006001820160ff1681548110151561039757fe5b906000526020600020900160009054906101000a900473ffffffffffffffffffffffffffffffffffffffff1660008260ff168154811015156103d557fe5b906000526020600020900160006101000a81548173ffffffffffffffffffffffffffffffffffffffff021916908373ffffffffffffffffffffffffffffffffffffffff1602179055508080600101915050610363565b60008060018060019054906101000a900460ff160360ff1681548110151561044f57fe5b906000526020600020900160006101000a81548173ffffffffffffffffffffffffffffffffffffffff021916908373ffffffffffffffffffffffffffffffffffffffff16021790555060018081819054906101000a900460ff16809291906001900391906101000a81548160ff021916908360ff160217905550504260038190555050565b60025481565b600080600090505b6001809054906101000a900460ff1660ff168160ff1610156105875760008160ff1681548110151561051057fe5b906000526020600020900160009054906101000a900473ffffffffffffffffffffffffffffffffffffffff1673ffffffffffffffffffffffffffffffffffffffff163373ffffffffffffffffffffffffffffffffffffffff16141561057a57600181019150610588565b80806001019150506104e2565b5b5090565b603c600254026003540142101515610644577f981dc52795d197fa56865619edbd5b7e83fb2865f0a6a7e4d618aa2ec39aee406000808154811015156105ce57fe5b906000526020600020900160009054906101000a900473ffffffffffffffffffffffffffffffffffffffff16604051808273ffffffffffffffffffffffffffffffffffffffff1673ffffffffffffffffffffffffffffffffffffffff16815260200191505060405180910390a161064361035d565b5b565b6000806001809054906101000a900460ff1660ff1614905090565b600060018060019054906101000a900460ff1660ff16119050905600a165627a7a72305820e1ecc922d369f8f119e51d6d45170cc72bfa9ac427b8dac8251de5104e9748210029",
  "source": "pragma solidity ^0.4.15;\n\n/**\n * @title Queue\n * @dev Data structure contract used in `Crowdsale.sol`\n * Allows buyers to line up on a first-in-first-out basis\n * See this example: http://interactivepython.org/courselib/static/pythonds/BasicDS/ImplementingaQueueinPython.html\n */\n\ncontract Queue {\n\t/* State variables */\n\taddress[] queue;\n\tuint8 size = 5;\n\tuint8 pointer;\n  uint public limit;\n  uint first;\n\n\t/* Add events */\n  event Ejected(address);\n\n\t/* Add constructor */\n  function Queue(uint timeLimit) public {\n  \tqueue = new address[](size);\n    pointer = 0;\n    limit = timeLimit;\n  }\n\n\t/* Returns the number of people waiting in line */\n\tfunction qsize() constant returns(uint8) {\n\t\treturn pointer;\n\t}\n\n\t/* Returns whether the queue is empty or not */\n\tfunction empty() constant returns(bool) {\n\t\treturn pointer == 0;\n\t}\n\n  function canBuy() constant returns (bool) {\n    return pointer > 1;\n  }   \n\n\t/* Returns the address of the person in the front of the queue */\n\tfunction getFirst() constant returns(address) {\n\t\treturn queue[0];\n\t}\n\n\t/* Allows `msg.sender` to check their position in the queue */\n\tfunction checkPlace() constant returns(uint8) {\n\t\tfor (uint8 i = 0; i < pointer; i++) {\n      if (msg.sender == queue[i]) {\n        return i + 1;\n      }\n    }\n\t}\n\n\t/* Allows anyone to expel the first person in line if their time\n\t * limit is up\n\t */\n\tfunction checkTime() {\n\t\tif (now >= first + limit * 1 minutes) {\n      Ejected(queue[0]);\n      dequeue();\n    }\n\t}\n\n\t/* Removes the first person in line; either when their time is up or when\n\t * they are done with their purchase\n\t */\n\tfunction dequeue() {\n    for (uint8 i = 0; i < pointer-1; i++) {\n      queue[i] = queue[i+1];\n    }\n    queue[pointer-1] = 0;\n    pointer--;\n    first = now;\n\t}\n\n\t/* Places `addr` in the first empty position in the queue */\n\tfunction enqueue(address addr) {\n\t\tif (empty()) {\n      first = now;\n    }\n    if (pointer < 5) {\n      queue[pointer] = addr;\n      pointer ++;\n    }\n\t}\n}\n",
  "sourcePath": "/Users/kunalkak/Blockchain/sp18-midterm-p1/contracts/Queue.sol",
  "compiler": {
    "name": "solc",
    "version": "0.4.19+commit.c4cbbb05.Emscripten.clang"
  },
  "schemaVersion": "1.0.1",
  "updatedAt": "2018-03-08T23:38:10.284Z"
}